:020000040800F2
:10000000484F002061470008092B00080B2B00080F
:100010000F2B0008132B0008172B0008000000000E
:100020000000000000000000000000001B2B000882
:100030001D2B000800000000239400087D400008EC
:100040007B4700087B4700087B4700087B47000888
:100050007B4700087B470008B72900087B4700085A
:100060007B4700087B470008DB2900087B47000826
:100070007B4700087B4700087B4700087B47000858
:100080007B4700087B4700087B4700087B47000848
:100090007B4700087B4700087B4700087B47000838
:1000A0007B4700087B4700087B4700087B47000828
:1000B000DD320008F1320008053300087B470008F4
:1000C0007B4700087B4700087B4700087B47000808
:1000D0007B470008ED45000847460008A946000890
:1000E0007B4700087B4700087B47000800F002F8C8
:1000F00000F05AF80AA090E8000C82448344AAF168
:100100000107DA4501D100F04FF8AFF2090EBAE865
:100110000F0013F0010F18BFFB1A43F0010318473B
:10012000AC950000CC9500000A444FF0000C10F88C
:10013000013B13F0070408BF10F8014B1D1108BF65
:1001400010F8015B641E05D010F8016B641E01F805
:10015000016BF9D113F0080F1EBF10F8014BAD1C55
:100160000C1B09D16D1E58BF01F801CBFAD505E073
:1001700014F8016B01F8016B6D1EF9D59142D6D3CD
:10018000704700000023002400250026103A28BFF5
:1001900078C1FBD8520728BF30C148BF0B607047F9
:1001A0001FB51FBD10B510BD09F0DDF91146FFF7F1
:1001B000F7FF02F012FB09F0FBF903B4FFF7F2FFBF
:1001C00003BC03F0EBFF00001CB5684603F065F9C3
:1001D0009DF80600FE4908709DF80500FD4908706D
:1001E0009DF80400FC4908709DF80300FB49087065
:1001F0009DF80200FA4908709DF80100F94908705D
:100200009DF80000F84908701CBD70B504460D4605
:10021000FFF7DAFFF54800883C2804DCF348008843
:10022000401CF2490880F2480078FF2804DAF048C0
:100230000078401CEE490870EE480078022814D17E
:10024000ED480088002810DDEC480088401CEB4990
:10025000088008460088E8490988884205DB0120B3
:10026000E74908700020E5490880E6480078012841
:1002700004D1E5480088401CE3490880E248008832
:100280000A2804DD0020E0490880DE490870DF48C4
:10029000007801280ED1DE480088401CDC49088027
:1002A000084600880F2805DD0120DA490870002083
:1002B000D7490880D8480078FF2804DAD648007863
:1002C000401CD549087070BD70B504460D466420C9
:1002D00003F025FF70BD05E064230022114610469F
:1002E00008F0B8FCF8E730B591B0A3208DF8040011
:1002F0008DF80500FF208DF806008DF80700F0202E
:100300008DF80800AA208DF80900C44800788DF8FF
:100310000A00C34800788DF80B00C24800788DF8B9
:100320000C00C14800788DF80D00C04800788DF8A9
:100330000E00B64800788DF80F00BD4800788DF8A3
:100340001000BC4800788DF811000024002505E05D
:1003500001A8405D204484B2681CC5B20E2DF7DBB5
:1003600020128DF81200E0B28DF81300B248007828
:10037000012803D101A9102004F0E7F8AE48007865
:10038000022803D101A9102004F0F3F80A2003F099
:10039000C6FE11B030BD70B50446002C00DA70BD49
:1003A00006F0F4FB0020A5490855002509E00020CF
:1003B00004EB4401C1EB8411A14A11444855681C67
:1003C000C5B2302DF3DB06F026FC00BFE7E702469E
:1003D000002108E09B4830F81100904201D1084606
:1003E0007047481CC1B2934800788142F2DB4FF05D
:1003F000FF30F5E770B5054606F0C8FB00240CE0B9
:100400000020914901F8240001EB840148708E49D5
:1004100001EB8401C870601CC4B2AC42F0DB06F092
:10042000FAFB70BD10B5002404E02046FFF7B3FFCF
:10043000601CC4B27F4800788442F6DB10BD10B562
:10044000002147F2425002F01DFE002147F24350C6
:1004500002F018FE002147F2445002F013FE002182
:1004600047F2455002F00EFE002147F2465002F0DE
:1004700009FE002147F2475002F004FE10BD70B59E
:100480000446802C00DB70BD6E4830F81400051265
:100490006C4810F8146004EB440147F242521144D6
:1004A00088B2294602F0EEFD04EB440147F24252C5
:1004B0001144491C88B2314602F0E4FD04EB4401CA
:1004C00047F242521144891C88B2012102F0DAFD40
:1004D00004EB440147F242521144C91C88B2002186
:1004E00002F0D0FD04EB440147F242521144091DD1
:1004F00088B2002102F0C6FD04EB440147F24252EB
:100500001144491D88B2002102F0BCFD00BFBAE7CA
:100510002DE9F04FB3B04FF00008002012904B4887
:100520000088002815DD4FF00109484890F8008048
:10053000002407E0802C03DA4548005D13A9085524
:10054000601CC4B2414800888442F3DB00203F496C
:10055000088040480088002815DD4FF002093D481A
:1005600090F80080002407E0802C03DA3A48005D10
:1005700013A90855601CC4B2364800888442F3DBD6
:10058000002034490880B8F1000F40F38F87B8F19C
:100590003D0F80F28B879DF84C00A5280FD19DF868
:1005A0004D00A5280BD124480078484507D02248A3
:1005B00080F80090017847F2415002F063FDB8F1F5
:1005C000100F7CDB9DF84E00FF2879D146E000003B
:1005D0003C0000203D0000203F0000203E000020A5
:1005E0004000002041000020420000204E0000207A
:1005F0005000002048000020440000204600002059
:10060000490000202B000020280000202F0000209F
:100610002600002038000020390000202C00002097
:100620002D0000202E00002030000020310000208E
:100630003200002036000020240000204E3400202C
:10064000CE150020CE130020CE340020D000002094
:1006500009380020D2000020893800209DF84F0082
:10066000FF28B2D19DF85000F0280BD19DF8510021
:100670000A2808D1002012900120FD4908700A20A4
:1006800003F04DFDA5E29DF85100012858D1A320AB
:100690008DF808008DF80900FF208DF80A008DF80C
:1006A0000B00F0208DF80C009DF851008DF80D0026
:1006B000F04800788DF80E00EF48007801E0E6E39E
:1006C000FCE38DF80F00ED4800788DF81000EC4841
:1006D00000788DF81100EB4800788DF81200EA4898
:1006E00000788DF81300E94800788DF81400E84888
:1006F00000788DF815000025002405E002A8005DB3
:10070000284485B2601CC4B20E2CF7DB28128DF889
:100710001600E8B28DF81700DE480078012803D1F2
:1007200002A9102003F011FFDA480078022803D153
:1007300002A9102003F01DFF0A2003F0F0FCA1E73E
:100740009DF8510002287DD19DF85200C9490870DA
:100750009DF85300C84908709DF85400C7490870B7
:100760009DF85500C64908709DF85600C5490870A7
:100770009DF85700C44908709DF85800C349087097
:100780009DF85900C249087006F000FAB94801788E
:1007900047F2315002F076FCB748017847F2325008
:1007A00002F070FCB548017847F2335002F06AFC61
:1007B000B348017847F23C5002F064FCB14801783C
:1007C00047F23D5002F05EFCAF48017847F23E50E0
:1007D00002F058FCAD48017847F23F5002F052FC5D
:1007E000AB48017847F2405002F04CFC06F013FA97
:1007F0000121A048007803F009FA00219E48007802
:1008000003F004FA012003F0CCF9002003F0C9F949
:10081000A3208DF808008DF80900FF208DF80A004C
:100820008DF80B00F0208DF80C009DF851008DF82C
:100830000D00904800788DF80E008F4800788DF8F4
:100840000F0000E03CE08D4800788DF810008C48E7
:1008500000788DF811008B4800788DF812008A48D6
:1008600000788DF81300894800788DF814008848C6
:1008700000788DF815000025002405E002A8005D31
:10088000284485B2601CC4B20E2CF7DB28128DF808
:100890001600E8B28DF817007E480078012803D1D1
:1008A00002A9102003F051FE7A480078022803D1F3
:1008B00002A9102003F05DFE0A2003F030FCE1E6FF
:1008C0009DF85100032858D1A3208DF808008DF819
:1008D0000900FF208DF80A008DF80B00F0208DF83C
:1008E0000C009DF851008DF80D00624800788DF8DD
:1008F0000E00614800788DF80F00604800788DF890
:1009000010005F4800788DF811005E4800788DF87F
:1009100012005D4800788DF813005C4800788DF86F
:1009200014005B4800788DF815000025002405E0D0
:1009300002A8005D284485B2601CC4B20E2CF7DB0F
:1009400028128DF81600E8B28DF81700514800788B
:10095000012803D102A9102003F0F7FD4D480078CB
:10096000022803D102A9102003F003FE0A2003F09D
:10097000D6FB642033B0BDE8F08F9DF85100042809
:1009800075D106F003F900203949087083469DF8B7
:1009900053009DF8521000EB012087B23846FFF754
:1009A00016FD002801DA4FF0010BBBF1010F47D112
:1009B00039480078802843DA38483749097820F8E0
:1009C000117000203649344A127801F822000021C3
:1009D0003348314A127800EB8200417000203049E0
:1009E0002D4A127801EB8201887000212C482A4A96
:1009F000127800EB8200C17000202A49264A127842
:100A000001F8120000212748234A127800EB420027
:100A1000417021480078FFF732FD1F480078FFF74A
:100A2000BAFC1D480078401C1B4908700846007835
:100A3000802805DA00201949174A127821F8120097
:100A400006F0E9F8A3208DF808008DF80900FF20D2
:100A50008DF80A008DF80B00F0208DF80C000420B2
:100A60008DF80D009DF852008DF80E001CE053E04B
:100A7000370000202C0000202D0000202E00002038
:100A800030000020310000202F0000203200002024
:100A9000330000202400002036000020CE13002068
:100AA000CE340020CE1400209DF853008DF80F00A6
:100AB000F74800788DF8100000208DF811008DF8AF
:100AC00012008DF813008DF814008DF81500002524
:100AD000002405E002A8005D284485B2601CC4B271
:100AE0000E2CF7DB28128DF81600E8B28DF81700EF
:100AF000E8480078012803D102A9102003F025FD61
:100B0000E4480078022803D102A9102003F031FD47
:100B10000A2003F004FBC5E39DF85100052859D1D4
:100B200003F0FDFA0020DC490870D9490870DB4960
:100B30000870DB49D64A127821F81200FFF77FFCD3
:100B4000A3208DF808008DF80900FF208DF80A0019
:100B50008DF80B00F0208DF80C009DF851008DF8F9
:100B60000D0000208DF80E008DF80F008DF810009C
:100B70008DF811008DF812008DF813008DF8140017
:100B80008DF815000025002405E002A8005D28442A
:100B900085B2601CC4B20E2CF7DB28128DF816004B
:100BA000E8B28DF81700BB480078012803D102A9EC
:100BB000102003F0CAFCB7480078022803D102A92C
:100BC000102003F0D6FC8020FFF714FC0A2003F06D
:100BD000A6FA67E39DF85100062860D1FFF722FCD2
:100BE000AB480078FFF706FC0020AE4908800520DE
:100BF00003F095FA9DF85200A7490870A3208DF8DC
:100C000008008DF80900FF208DF80A008DF80B0010
:100C1000F0208DF80C009DF851008DF80D009DF826
:100C200052008DF80E009A4800788DF80F009B480E
:100C300000788DF810009C4800788DF811009B48D2
:100C400000788DF8120000208DF813008DF8140044
:100C50008DF815000025002405E002A8005D284459
:100C600085B2601CC4B20E2CF7DB28128DF816007A
:100C7000E8B28DF8170087480078012803D102A94F
:100C8000102003F062FC83480078022803D102A9F7
:100C9000102003F06EFC0A2003F041FA02E39DF8F5
:100CA000510007287ED100207B49087078480078E1
:100CB00000285DDDA3208DF808008DF80900FF20D5
:100CC0008DF80A008DF80B00F0208DF80C0007203D
:100CD0008DF80D00002646E0714830F816502812B5
:100CE0008DF80E00E8B28DF80F00701CC0B28DF8C0
:100CF00010006F4810F816008DF811006C4800EBDA
:100D0000460040788DF812006A48805D8DF8130027
:100D100000208DF814008DF815000025002405E052
:100D200002A8005D284485B2601CC4B20E2CF7DB1B
:100D300028128DF81600E8B28DF817005548007893
:100D4000012803D102A9102003F0FFFB51480078CD
:100D5000022803D102A9102003F00BFC0A2003F0A3
:100D6000DEF9701CC6B24A4800788642B4DB99E2CC
:100D7000A3208DF808008DF80900FF208DF80A00E7
:100D80008DF80B00F0208DF80C0007208DF80D0079
:100D900000208DF80E008DF80F008DF810008DF8F2
:100DA000110000E02CE08DF812008DF813008DF892
:100DB00014008DF815000025002405E002A8005D50
:100DC000284485B2601CC4B20E2CF7DB28128DF8C3
:100DD0001600E8B28DF817002E480078012803D1DC
:100DE00002A9102003F0B1FB2A480078022803D1A1
:100DF00002A9102003F0BDFB0A2003F090F951E294
:100E00009DF85100082872D19DF852000C2824D278
:100E1000DFE800F006242D325C62676E757C828705
:100E2000002408E09DF85510204602F04FFD02A96D
:100E30000855601CC4B2402CF4DB16480078012829
:100E400003D102A9282003F080FB12480078022871
:100E500003D102A9282003F08CFB67E09DF8552000
:100E60009DF854109DF8530002F0E0FC5EE09DF800
:100E7000550002F057FF59E09DF8550001281ED19A
:100E80009DF855100C48007802F0C0FE1DE08FE27E
:100E9000360000202400002037000020350000200C
:100EA000CE13002046000020320000203300002036
:100EB000CE1400204E3400202C000020B9E29DF812
:100EC0005510FE48007802F0A1FE2FE09DF8551065
:100ED000342002F07AFC29E09DF8550002F081FDF3
:100EE00024E09DF85510F64802F09AFD1EE01EE041
:100EF0009DF85510F348007802F042FE16E09DF888
:100F000055200021172002F091FC0FE09DF85510AC
:100F1000012002F063FE09E09DF8550002F041FE59
:100F200004E09DF8550003F072F800BFBAE19DF8A7
:100F30005100092863D105F029FE9DF85400E249CB
:100F4000087005F068FEE048017847F2C86002F0DA
:100F500099F8A3208DF808008DF80900FF208DF87E
:100F60000A008DF80B00F0208DF80C009DF8510060
:100F70008DF80D00D54800788DF80E00CF48007828
:100F80008DF80F00D24800788DF81000D148007815
:100F90008DF81100D04800788DF81200CF48007805
:100FA0008DF81300C84800788DF81400CC480078FC
:100FB0008DF815000025002405E002A8005D2844F6
:100FC00085B2601CC4B20E2CF7DB28128DF8160017
:100FD000E8B28DF81700C3480078012803D102A9B0
:100FE000102003F0B2FABF480078022803D102A90A
:100FF000102003F0BEFA0A2003F091F852E19DF8A8
:1010000051000B287DD105F0C1FD0020B6490880B4
:101010009DF85200B54908709DF85300B449087016
:101020009DF855009DF8541040EA0120B149088010
:1010300005F0F1FDAD48017847F2C96002F022F8F1
:10104000AC480088011247F2CA6002F01BF8A948B8
:10105000017847F2CB6002F015F8A548017847F215
:10106000CC6002F00FF8A3208DF808008DF809007D
:10107000FF208DF80A008DF80B00F0208DF80C0091
:101080009DF851008DF80D00984800788DF80E00FD
:10109000974800788DF80F009648008800128DF868
:1010A0001000944800788DF8110000208DF812008F
:1010B0008DF813008DF814008DF81500002500241C
:1010C00005E002A8005D284485B2601CC4B20E2C65
:1010D000F7DB28128DF81600E8B28DF8170081486A
:1010E0000078012803D102A9102003F02EFA7D48D0
:1010F0000078022803D102A9102003F03AFA0A204E
:1011000000E002E003F00BF8CCE09DF851000C2861
:1011100054D1A3208DF808008DF80900FF208DF828
:101120000A008DF80B00F0208DF80C009DF851009E
:101130008DF80D006D4800788DF80E006C48007831
:101140008DF80F006B48008800128DF81000694878
:1011500000788DF811006448008800128DF81200A4
:10116000614800788DF8130000208DF814008DF888
:1011700015000025002405E002A8005D284485B282
:10118000601CC4B20E2CF7DB28128DF81600E8B2F2
:101190008DF8170053480078012803D102A91020C8
:1011A00003F0D3F94F480078022803D102A9102098
:1011B00003F0DFF90A2002F0B2FF73E09DF851005E
:1011C0000D286FD1A3208DF808008DF80900FF20AD
:1011D0008DF80A008DF80B00F0208DF80C009DF8BA
:1011E00051008DF80D009DF85200012823D19DF883
:1011F0005300414908709DF85400404908703E482A
:10120000017847F2CD6001F03DFF3B48017847F29D
:10121000CE6001F037FF01213748007802F0B0FCC2
:1012200000213648007802F0ABFC012002F0B9FC46
:10123000002002F0B6FC304800788DF80F002F48EF
:1012400000788DF8100000208DF811008DF8120044
:101250008DF813008DF814008DF81500002500247A
:1012600005E002A8005D284485B2601CC4B20E2CC3
:10127000F7DB28128DF81600E8B28DF81700194830
:101280000078012803D102A9102003F05EF9154867
:101290000078022803D102A9102003F06AF90A207D
:1012A00002F03DFF9DF85000AA2803D09DF85000A1
:1012B000AB287DD19DF8540022E000002D000020D5
:1012C00000000020C0000020340000202C0000207E
:1012D0002E00002030000020310000202F000020D0
:1012E0003300002024000020460000204800002099
:1012F0004A000020440000204B0000204C00002049
:101300009DF8531040EA0127002F03DD3846FFF710
:101310005EF8019005F03AFC9DF85000AB2805D12D
:10132000002F05DD0198FFF736F801E0012012904B
:101330009DF85100002813DD002406E0A01D13A92C
:10134000085CFE490855601CC4B29DF85100A042DB
:10135000F4DC0020FA4908709DF85100F949087042
:101360004FF0010AF5480078B52805D1F348C07858
:10137000FF2801D14FF0000AF0480078C52805D1B8
:10138000EE48C078FA2801D14FF0000A05F043FC7E
:10139000BAF1010F7FD1A3208DF808008DF8090064
:1013A000FF208DF80A008DF80B009DF8500000E03A
:1013B0003EE08DF80C009DF851008DF80D009DF871
:1013C00052008DF80E009DF853008DF80F0000209C
:1013D0008DF810008DF811008DF812008DF81300B3
:1013E0008DF814008DF815000025002405E002A8F2
:1013F000005D284485B2601CC4B20E2CF7DB2812B5
:101400008DF81600E8B28DF81700052002F087FE6F
:10141000CD480078012803D102A9102003F095F8E7
:10142000C9480078022836D102A9102003F0A1F89B
:1014300031E09DF85000FA2807D09DF85000FB28B5
:1014400003D09DF85000FC280FD10020BF49086050
:101450000022102113A802F0ABFC032002F05FFE73
:101460000120BB49C1F8980115E00020B7490839AF
:101470000860B749C1F894010122414613A802F05F
:1014800097FC032002F04BFE0120B04908390860A8
:10149000AF49C1F89401129840B905F077FB0020DC
:1014A000AC490870AC49088005F0B5FB0020FFF797
:1014B00061BA30B589B0A3208DF804008DF805001D
:1014C000FF208DF806008DF80700F0208DF8080049
:1014D000FC208DF80900A14800788DF80A00A0488A
:1014E000008800128DF80B009D4800788DF80C00E4
:1014F0009C48008800128DF80D009A4800788DF8FD
:101500000E0000208DF80F008DF810008DF81100EE
:101510000024002505E001A8405D204484B2681C39
:10152000C5B20E2DF7DB20128DF81200E0B28DF857
:10153000130085480078012803D101A9102003F089
:1015400004F881480078022803D101A9102003F093
:1015500010F81E2002F0E3FD09B030BDF0B585B0F3
:1015600004460027002079490839086007F032FF57
:101570000746B5208DF80000200A8DF80100E0B282
:101580008DF802000D208DF8030008208DF804006E
:1015900000208DF805000026002505E01DF8050057
:1015A000304486B2681CC5B2062DF7DB30128DF8C8
:1015B0000600F0B28DF8070001220821684602F00B
:1015C000F7FB384607F00AFF052002F0A8FD0120CE
:1015D0005E490839086005B0F0BD70B500250024EB
:1015E00017E061486149097800EB81008078EE28B6
:1015F0000DD05D4800EB84004078012807D15A489F
:1016000000EB8400C078012801D1681C85B2601C01
:1016100084B2574800788442E3DB554800780028BC
:101620000EDD54480078854203DA5148007885423F
:1016300006DB05F0ABFA01204F49087005F0EBFA24
:1016400070BD10B500224D4B1A54002109E0002254
:1016500000EB4003C3EB8013494C23445A544A1C0B
:10166000D1B23D29F3DB10BD10B504464348005DFF
:10167000002827DD052002F052FD012035490870C1
:1016800031480078012809D104EB4402C2EB8412EE
:101690003B4BD118394A105D02F057FF2A480078B9
:1016A000022809D104EB4402C2EB8412344BD11856
:1016B000324A105D02F05DFF2046FFF7C2FF0520B1
:1016C00002F02DFD012010BD70B50246052919DD7F
:1016D0003D2917DA0024002304E0D05C204484B2C2
:1016E000581CC3B2881E9842F7DC2512E6B2105C83
:1016F000A84205D1481E105CB04201D1012070BD46
:101700000020FCE70020FAE72DE9F04389B04FF014
:10171000000800274FF0140900201A4908601A49F0
:10172000088002F0D0FB1948007800287EDD1748B9
:1017300001781748FFF7C8FF01282BE0CE360020BC
:101740003B0000203A0000202400002098012142A4
:10175000000021422B00002026000020480000202D
:101760004400002046000020CE3400203500002038
:10177000360000204A0000204900002022000020FE
:1017800054130020A08121424E000020A50000201B
:101790000B3700204AD1FA480078B02859D10E25DD
:1017A000A0208DF80400F64840788DF80500F44834
:1017B00080788DF80600FF208DF807008DF808501E
:1017C000F04800788DF80900EF4800788DF80A009D
:1017D000EE4800788DF80B00ED4800788DF80C008D
:1017E000EC49087802F0D8FB8DF80D00EA48007843
:1017F0008DF80E00E94800788DF80F0000260024CF
:1018000005E001A8005D304486B2601CC4B2A81E89
:10181000A042F6DC311201AA1154681E16540020B1
:10182000DF490860484602F07AFC00E016E1002239
:10183000294601A802F0BCFA052002F070FC002243
:10184000294601A802F0B4FA0120D649C1F898014E
:10185000A9E0CB480078B128FAD1CF480078802899
:1018600001DA012700E000270A25A1208DF80400F5
:10187000C34840788DF80500C14880788DF806008F
:10188000FF208DF807008DF80850BE4800788DF8CD
:101890000900BD4800788DF80A008DF80B7000260D
:1018A000002405E001A8005D304486B2601CC4B28B
:1018B000A81EA042F6DC311201AA1154681E16546B
:1018C0000020B7490860484602F029FC002229465A
:1018D00001A802F06DFA052002F021FC0022294641
:1018E00001A802F065FA0120AE49C1F89801A449A7
:1018F0008978A34A527841EA0220FEF768FD002861
:101900004BDA05F043F99E4880789D49497840EAD2
:101910000121A548A04A127820F812100021A348FE
:101920009D4A127800F822100020A0499A4A1278A5
:1019300001EB820148709D49974A127801EB8201C0
:1019400088709A49944A127801EB8201C8709849CC
:10195000914A127801F812008F4A127801EB420185
:1019600048708D480078FEF716FD8B480078401CC3
:101970008949087008460078802805DA00208A49DD
:10198000854A127821F8120083480078802802DB0B
:1019900000208149087005F03EF90A2001F0EBF9BA
:1019A00001208449087076480078B22841D100208F
:1019B0007B4908608048007818B901274FF001087A
:1019C00000E000270A25A2208DF804006C4840782A
:1019D0008DF805006A4880788DF80600FF208DF8A4
:1019E00007008DF80850674800788DF809006648B0
:1019F00000788DF80A008DF80B700026002405E0B1
:101A000001A8005D304486B2601CC4B2A81EA0428A
:101A1000F6DC311201AA1154681E1654484602F031
:101A20007EFB0022294601A802F0C2F901205C4990
:101A30000860B8F1010F11D14FF00008002405E053
:101A40004F48005D5D490855601CC4B25C48007891
:101A5000A042F5DA5A4800785749087000205949E1
:101A6000087057490878002101F0CCFE002002F0F0
:101A700098F85548006808B9012000E00020524954
:101A8000086009B0BDE8F08370B5002500BF0020F4
:101A90004349091F0860012002F015FA48484078C0
:101AA00005286CDD4648417835483D30FFF70CFE8F
:101AB000012864D145480078002811DD304890F8AD
:101AC0003D00B3280CD12E4890F84000FF2807D0E5
:101AD0002B4890F84000FE2802D000203B490870B7
:101AE0002D48007800287BDD254890F83D00B3287C
:101AF00009D0234890F83D00C32804D0204890F82E
:101B00003D00D3286DD11E4890F83F1090F83E005C
:101B100041EA002024492E4A127831F812108842F6
:101B20005FD1174890F83D00B32874D1144890F85D
:101B30004000FF2858D1124890F84100212853D185
:101B40002448007801284DD11D4840782249204A78
:101B50001278885400240DE009483D30005D1C498E
:101B6000097801EB4102C2EB81111C4A114408556E
:101B7000601CC4B212484078A042EDDC4BE08AE021
:101B80000B3700202C0000202D0000203100002009
:101B900030000020AB000020360000202F00002085
:101BA0009801214200002142CE130020CE340020B3
:101BB000CE14002037000020220000205413002003
:101BC000A5000020A3000020A08121423A000020AF
:101BD000350000202B0000204E340020CE150020C0
:101BE00029E027E0012516E0FA4890F84000FE2899
:101BF00011D1F84890F84210F748F84A127800EBF3
:101C00008200C170F34890F84300F349F34A127818
:101C100001EB82014870EF4890F83D00C32800D1E5
:101C20000125EC4890F83D00D3281FD1EB480078FF
:101C3000FEF7B1FB1AE0E74890F83D00B3280AD15F
:101C4000E44890F84000FF2804D0E24890F84000B3
:101C5000FE2800D10125DF4890F83D00C32805D1BA
:101C6000DC4890F84000FA2800D1012585B1002415
:101C700006E0D8483D30015DD9480155601CC4B22A
:101C8000D8484078A042F4DCD6484078D64948701D
:101C90000120D64908700020D5494870D1494878BC
:101CA000012101F0AFFD012001F07BFFD148006868
:101CB00008B9012000E00020CE49086070BD70B571
:101CC0008CB0CD480078012847D1CC480078012855
:101CD00076D1CB480078002872DDCA480078012808
:101CE0006ED0C948BD49097830F81160002E34DD46
:101CF0000020C6490880C648B8490978405C68BBDE
:101D00000020BC49091F0860B5208DF81000301272
:101D10008DF81100F0B28DF81200FF208DF813003D
:101D200007208DF814000025002405E004A8005DBC
:101D3000284485B2601CC4B2052CF7DB28128DF84C
:101D40001500E8B28DF816000122072104A802F060
:101D50002FF80120A749091F086094E0AD480078DA
:101D600048BB0120AB490870AB48007801280DD171
:101D70009A4A127802EB4203C3EB8212A74BD118A6
:101D8000A34A964B1B78D05C02F0DFFBA248007898
:101D900002280DD1914A127802EB4203C3EB821262
:101DA0009E4BD1189A4A8D4B1B78D05C02F0E1FB18
:101DB0000A2002F0B4F901208C49087063E0FFE7C3
:101DC0009048007801285ED100209549088004F0F1
:101DD000DDFE00208B4908708C49088004F01BFF51
:101DE000A3208DF800008DF80100FF208DF802007F
:101DF0008DF80300F0208DF80400FF208DF8050019
:101E00007F4800788DF80600744800788DF8070048
:101E1000794800788DF80800784800788DF8090036
:101E2000714840788DF80A006F4800788DF80B00F3
:101E30007C4800788DF80C0000208DF80D000025FE
:101E4000002405E01DF80400284485B2601CC4B2DB
:101E50000E2CF7DB28128DF80E00E8B28DF80F007B
:101E60006D480078012803D16946102002F06DFB0F
:101E700069480078022803D16946102002F079FBF6
:101E80000A2002F04CF90CB070BD30B589B00020CA
:101E90005849091F08606449C1F8A00104F076FEA2
:101EA00000206249087004F0B6FEB5208DF80400E9
:101EB00000208DF805008DF80600EE208DF8070053
:101EC0000A208DF808005A4800788DF80900594812
:101ED00000788DF80A00584800788DF80B0000242F
:101EE000002505E001A8405D204484B2681CC5B20D
:101EF000082DF7DB20128DF80C00E0B28DF80D00F4
:101F00000A2002F00CF901220A2101A801F050FF79
:101F1000022002F004F901203649091F08604249F5
:101F2000C1F8A00109B030BD30B50246344B1B7872
:101F300003B930BD104631E0334C431C34F8133044
:101F400024F810303D4C431C14F8133004F81030C2
:101F5000431C04EB43035B7804EB400463702C4C9C
:101F6000431CE35C235423461B5C002B14DD00213F
:101F700010E0431C03EB4304C4EB8313274C2344BE
:101F80005B5C00EB4004C4EB8014244D2C44635490
:101F90004B1CD9B23029ECDB431CD8B2184B1B7850
:101FA0005B1E8342C8DC0024174B154D2D7823F8A7
:101FB0001540224B124D2D7803F81540104D2D7809
:101FC00003EB45035C700023114C0D4D2D786355D8
:101FD000002141E00B370020CE34002035000020E6
:101FE00091130020A5000020220000202A000020DC
:101FF000A3000020940121422F0000203700002080
:102000003600002038000020CE13002026000020DB
:102010004E3400202B00002024000020CE1500208C
:10202000D20000203A000020008021423900002028
:102030002D0000203000002031000020CE140020B0
:102040000023F94C247804EB4405C5EB8414F74DC8
:102050002C4463544B1CD9B23029F1DBF24B1B7872
:102060005B1EF14C23700023F14CEF4D2D7824F8CA
:1020700015300024EF4BEC4D2D7803F81540EA4D58
:102080002D7803EB45035C70EB4BE74D2D785C55E9
:1020900000210BE00023E44C247804EB4405C5EB5D
:1020A0008414E24D2C4463544B1CD9B23029F1DB2B
:1020B000002A01DD531EDAB200BF3AE794B00025D2
:1020C000002713A8DDA10022DE4BCDE900210290FC
:1020D000022264210A2006F07CFEDB49086013A975
:1020E000D948006807F007F813A8D8A10022D94BF7
:1020F000CDE90021029002220A21084606F069FE7D
:10210000D549086040F27121042001F0D1F8012185
:10211000D248007801F07AFD0021D148007801F022
:1021200075FD1E250020CF490870CF490870CF49A2
:1021300008800120FFF785FA0020FFF782FACC48DB
:10214000007801282FD1EE208DF80C00C94948787D
:1021500001F022FF8DF80D00C649087801F01CFF40
:102160008DF80E00C4480068C0B28DF80F00C34857
:10217000D0F89401C0B28DF81000FF208DF8110046
:10218000BF480078012803D103A9062002F0DDF939
:10219000BB480078022803D103A9062002F0E9F920
:1021A0001E2001F0BCFF012001F0FBFC002001F02B
:1021B000F8FC9D480078002802DD0120B149087034
:1021C000D7E101F087F81E2D03DAA6480078002831
:1021D0007AD0AC480078012877D1AB480078012844
:1021E0007DD091480078002879DD8F4800788028DC
:1021F00075DC04F0CBFC9B480078012811D100214C
:102200008C48A24A127800F81210A04A127800EB0B
:10221000420041709E489D4A127800EB8200817016
:102220005BE084489949097810F8110038B9994859
:1022300000788049954A127801EB420148707D4848
:102240009249097810F8110020280BDC79488F4951
:10225000097810F81100401CC1B276488B4A1278F8
:1022600000F8121073488949097810F811002028E5
:1022700033DD70488549097800EB41004078854995
:10228000097888420BDD6B488049097800EB4100F2
:102290004178804800783C30401AC6B209E0654871
:1022A0007A49097800EB410040787A490978081AA0
:1022B000C6B20F2E11DB78480078012806D173488A
:1022C0000078FFF731FE08E05AE008E0EE207049A0
:1022D0006E4A127801EB8201887004F09CFC6F4812
:1022E0000078012808D16E480078052804DD6D4883
:1022F000007808B9FFF7C9FD4FF4FA7001F0ECFE61
:10230000694800883C2804DB00206749088001F008
:1023100048FC04F03BFC00205249087004F07BFCB0
:102320004148007800B900256048407840BB5F48CC
:10233000007828BB5B48007810BB04F027FC5348AA
:102340000078401C514908700846007836490978E1
:10235000884202DB00204D49087004F05CFC052D2A
:1023600007DAC5F10A00C0B213909DF84C0001F0E5
:10237000D6FE0025FFF7A3FC4FF4FA7001F0ACFE87
:102380004B48407808B1FFF77FFB4948007808B117
:10239000FFF7BAF93448007870BB0120FFF764F901
:1023A0000020FFF761F943480078012801D1FFF7C9
:1023B00014F94148007801281ED104F0E7FB002001
:1023C0003D49087004F027FC0020FFF7C7F80A20F9
:1023D00001F0A5FE0020FFF7C1F80A2001F09FFEE2
:1023E0000020FFF7BBF80A2001F099FE0E480078A4
:1023F000FEF700F8FFF75DF8FEF78AF8642861D170
:10240000012080F3138800BF00BF2C48006800F44F
:10241000E0602B490843001D28490860BFF34F8F37
:1024200000BF00BFFEE74DE036000020CE150020C3
:10243000CE130020CE1400204E340020746D723173
:10244000000000000B02000854000020746D72327E
:1024500000000000C9020008580000202C000020E5
:102460002D0000202A0000202B0000202600002044
:1024700033000020AB0000208481214200802142F3
:102480002400002037000020380000203500002004
:10249000CE34002042000020340000202E00002016
:1024A000390000203A0000204E00002022000020C9
:1024B000A300002048000020490000200CED00E0AF
:1024C0000000FA05FD480078002839DD0020FC49AD
:1024D0000860FC49C1F8980106F07CFF0746FA48FD
:1024E000007805281BDAF54800783D2817DA002423
:1024F00005E0F648005D03A90855601CC4B2EF482A
:1025000000788442F5DBF0480078401CEE49087002
:102510000122EA48017803A801F04AFC04E0002007
:10252000E6490870E8490870384606F057FF05206C
:1025300001F0F5FD0120E2490860E249C1F8980187
:10254000E3480078B42807DDE248007820B900208D
:10255000DF490870FDF7C7FEDF490978C82201FB93
:1025600002F001F0B9FD04F011FB681C85B204F023
:1025700052FB26E670B505460024002005F0A5FDB7
:10258000D6490860002005F0A0FDD549086004F098
:10259000D1FB06F01FFF04460823D24A0021AFF208
:1025A000E34005F0DDFF0723CF4A0021CF4805F0C7
:1025B000D7FF0A2006F054FA204606F00FFF70BD40
:1025C0002DE9F04147F2315000F032FDC849087062
:1025D00047F2325000F02CFDC649087047F23350E4
:1025E00000F026FDC449087047F23C5000F020FD81
:1025F000C249087047F23D5000F01AFDC04908700A
:1026000047F23E5000F014FDBE49087047F23F50BB
:1026100000F00EFDB049087008460078012807DA7E
:10262000012008700846017847F23F5000F02AFD6B
:1026300047F2405000F0FCFCB349087008460078AF
:10264000012807DD002008700846017847F2405055
:1026500000F018FD0020AD490870002451E004EBA3
:10266000440147F24252881800F0E2FC054604EBB0
:10267000440147F242521144491C88B200F0D8FC90
:10268000064604EB440147F242521144891C88B2C9
:1026900000F0CEFC0746012F30D146EA05209C49C8
:1026A0009A4A127821F8120000209A49974A127823
:1026B00001F8220000219748944A127800EB82002A
:1026C000417000209349914A127801EB8201887091
:1026D00090498E4A127801EB8201C8708E498B4A6C
:1026E000127801F81200894A127801EB4201487011
:1026F00086480078401C8549087000E003E0601CB3
:10270000C4B2802CABDB00BF47F2C86000F090FC85
:102710008249087008460078012807DD012008700A
:102720000846017847F2C86000F0ACFC47F2C96087
:1027300000F07EFC7A49087008460078022807DD20
:10274000002008700846017847F2C96000F09AFC42
:1027500047F2CA6000F06CFC054647F2CB6000F01F
:1027600067FC0646FF2D05D1FF2E03D100206D49E1
:10277000088003E046EA05206A49088000206A498B
:10278000088047F2CC6000F053FC6849087047F2BB
:10279000CD6000F04DFC66490870084600781F289F
:1027A00007DAFF2008700846017847F2CD6000F094
:1027B00069FC47F2CE6000F03BFC5E4908700846B9
:1027C00000781F2807DAFF2008700846017847F2D2
:1027D000CE6000F057FCBDE8F08110B501F056FC6A
:1027E00001F0C6FC00F08CFA00F0E0FA4FF4E130A2
:1027F00001F003FD4FF4E13001F089FD4FF4E130C9
:1028000001F013FE41F61F41642000F0CBFC41F6BD
:102810001F414FF4FA7000F0F3FC41F61F414FF4F2
:102820007A7000F019FD00F0ADFE1E2000F0A3FA52
:102830000020234908602349C1F894012049083148
:1028400008603D49C1F8A001012001F06BFA28B1F0
:102850003A48007840F0020038490870002001F042
:1028600061FA28B13548007840F004003349087017
:1028700000F05AFC28B13148007840F008002F4998
:10288000087000F047FE122801D000F074FD01F03E
:1028900075FCFFF795FE01212548007801F070F9DD
:1028A000C82001F03CFC00212248007801F068F9C2
:1028B000C82001F034FC0248006841E03A000020E2
:1028C00090012142000021423B000020CE36002032
:1028D000500000202B000020320000205C0000206F
:1028E000600000205012002050130020D702000882
:1028F0002C0000202D0000202E00002030000020A1
:10290000310000202F00002033000020360000207E
:10291000CE130020CE340020CE140020340000203E
:102920004800002044000020460000204A0000200B
:102930004B0000204C000020008021422500002098
:1029400008B9012000E00020594908605948D0F832
:10295000940108B9012000E000205549091D0860D4
:102960005448D0F8980108B9012000E000205049EF
:10297000083108605048D0F8A00108B9012000E0F3
:1029800000204E49086047F2415000F051FB0446D8
:10299000012C01DA032C01DC4948047004F089F8A9
:1029A0000A23484A0021AFF2334005F0D9FD04F074
:1029B000A9F9002010BD10B504F095F8012003F02E
:1029C0008DFD38B101204049487003F083FD01209E
:1029D00003F095FD04F0A2F810BD10B504F083F8E3
:1029E000102003F07BFD40B1012037490870102012
:1029F00003F070FD102003F082FD04F08FF810BD8D
:102A000010B53248017847F2315000F03BFB3048B6
:102A1000017847F2325000F035FB2E48017847F23A
:102A2000335000F02FFB2C48017847F23C5000F067
:102A300029FB2A48017847F23D5000F023FB284843
:102A4000017847F23E5000F01DFB2648017847F21E
:102A50003F5000F017FB2448017847F2405000F047
:102A600011FB2248017847F2CC6000F00BFB10BD4F
:102A70001CB51F4800788DF800001E4800788DF8BE
:102A800001001D4800788DF802001C4800788DF880
:102A9000030000208DF80400194800788DF8050027
:102AA000184800788DF80600684600F04BFD1CBD04
:102AB000900121420000214200802142A081214258
:102AC0002400002050020020A30000202C00002041
:102AD0002D0000202E0000203000002031000020BA
:102AE0002F00002032000020330000204A00002088
:102AF0004200002041000020400000203E00002055
:102B00003D0000203C000020704700BFFEE700BFF2
:102B1000FEE700BFFEE700BFFEE77047704700001A
:102B20000CB50020019000906C48006840F48030A3
:102B30006A49086000BF6948006800F400300090EE
:102B40000198401C0190009818B90198B0F5A06F49
:102B5000F1D16248006800F4003010B1012000900B
:102B600001E0002000900098012843D15C480068F3
:102B700040F010005A4908600846006820F0030041
:102B800008600846006840F002000860534840684A
:102B9000524948600846406848600846406840F42A
:102BA000806048600846406820F47C104860084611
:102BB000406840F4E81048600846006840F08070C3
:102BC000086000BF4548006800F000700028F9D098
:102BD0004248406820F00300404948600846406889
:102BE00040F00200486000BF3C48406800F00C0024
:102BF0000828F9D10CBD10B5FFF792FF10BD10B534
:102C00003648006840F001003449086008464068D2
:102C10003449084031494860084600683249084054
:102C20002E4908600846006820F4802008600846A5
:102C3000406820F4FE0048604FF41F008860FFF7F2
:102C4000DAFF4FF000602949086010BD10B500217F
:102C500000200022214B5B6803F00C0121B1042904
:102C600006D0082928D107E0214B224C236027E019
:102C70001F4B204C236023E0184B5B6803F470105B
:102C8000164B5B6803F48032022303EB904022B9B9
:102C9000194B4343174C23600DE0104B5B6803F462
:102CA000003323B1144B4343124C236003E0104B19
:102CB0004343104C236003E00D4B0E4C236000BFD8
:102CC00000BF064B5B68C3F303130C4CE15C094B7C
:102CD0001B68CB40074C236010BD00000010024071
:102CE000002002400000FFF8FFFFF6FE08ED00E0C4
:102CF00000127A006400002000093D0068000020F6
:102D000008B50121082002F0D5F80121052002F0C4
:102D1000D1F82248406820F0E06020494860084629
:102D2000406840F0007048607020ADF8000010204E
:102D30008DF8030003208DF802006946184801F061
:102D4000FDFD4FF44070ADF8000010208DF8030039
:102D50006946144801F0F2FD7021114801F09BFE14
:102D60004FF480710F4801F096FE4FF400710D484A
:102D700001F093FE08BD70B5044601200A490860C1
:102D8000002505E04FF47A7001F0A6F9681CC5B281
:102D9000A542F7DB00200449086070BD0000014037
:102DA00000080140000C0140A481214208B5012126
:102DB000042002F07FF80320ADF8000010208DF809
:102DC000030003208DF802006946964801F0B6FD25
:102DD0000321944801F05FFE08BD002102E000BF1E
:102DE0004A1C91B28142FADB704710B58D480068E9
:102DF00020F0F0008B4908600846006840F0300081
:102E000008600120884908608849C1F880010220D3
:102E100001F062F9002084490860022001F05CF9A9
:102E200000208249C1F8800110BD10B57D480068BE
:102E300020F0F0007B4908600846006840F0300050
:102E4000086000207849091F08607849C1F88401AA
:102E5000022001F041F901207349091F0860022096
:102E600001F03AF901207149C1F88401022001F012
:102E700033F910BD10B500246A48006820F0F00056
:102E8000684908600846006840F08000086001203A
:102E90006549086001F020F901206449C1F880010A
:102EA00001F01AF907E0601CC4B2FA2C03DDFFF749
:102EB000BCFF012010BD5C48803800680028F2D1BA
:102EC0005949091F086000BFF4E710B500205649B2
:102ED000091F08605348006820F0F000514908605D
:102EE0000846006840F03000086000204F49C1F8F3
:102EF0008401022001F0F0F801204B49091F08600D
:102F0000022001F0E9F800204849C1F8800110BD15
:102F100010B500204449091F08604248006820F0AD
:102F2000F000404908600846006840F03000086042
:102F300001203E49C1F88401022001F0CDF80120B2
:102F40003949091F0860022001F0C6F800203749FE
:102F5000C1F8800110BD70B504463248006820F009
:102F6000F000304908600846006840F03000086012
:102F700000202D49091F086000251DE0E00918B157
:102F800001202949086002E0002027490860600606
:102F9000040E022001F0A0F801202349091F086057
:102FA000022001F099F800202049C1F88001022098
:102FB00001F092F8681CC5B2082DDFDB70BD70B55A
:102FC000054600241748006820F0F0001549086005
:102FD0000846006840F080000860002617E00020E6
:102FE0001149091F0860022001F076F801200F49FD
:102FF000C1F880016006040E0B488038006808B1F3
:10300000601CC4B2022001F067F8701CC6B2082E22
:10301000E5DB15B9FFF77CFF01E0FFF756FF20461F
:1030200070BD0000000801408401214200002142DF
:1030300070B504460026FFF7D8FEA020FFF78BFFEF
:10304000FFF718FF2012FFF786FFFFF713FF254653
:10305000E11704EB11610912A4EB0121C8B2FFF7DB
:103060007AFFFFF707FFFFF7C0FEA120FFF773FF0E
:10307000FFF700FF0020FFF7A2FF0646FFF7D5FE8F
:10308000304670BD70B504460E46FFF7AEFEA02078
:10309000FFF761FFFFF7EEFE2012FFF75CFFFFF77F
:1030A000E9FE2546E11704EB11610912A4EB0121A9
:1030B000C8B2FFF750FFFFF7DDFE3046FFF74BFFCA
:1030C000FFF7D8FEFFF7B1FE41F2883001F004F8B7
:1030D00070BD2DE9F04105460E461746002409E073
:1030E000E20026FA02F2D1B22A1990B2FFF7CAFF23
:1030F000601CC4B2BC42F3DBBDE8F0812DE9F041B5
:1031000007460C460026002509E036023919491BFE
:10311000491E88B2FFF78CFF0644681CC5B2A54261
:10312000F3DB3046BDE8F08110B547F23050FFF7D1
:103130007FFF0446552C01D1002010BD552147F2D8
:103140003050FFF79FFF47F23050FFF771FF044602
:10315000552C01D10020F0E70120EEE770B50646BE
:103160000C46154608E03046721C96B2FFF760FF29
:1031700004F8010B681E85B2002DF4D170BD70B546
:1031800005460C46164606E021782846FFF77AFFEA
:10319000681C85B2641C301EA6F101018EB2F3D109
:1031A00070BD00007FB505460C460121084601F0C0
:1031B0008EFEADF80850ADF804400020ADF80A00CE
:1031C000ADF8060001A94FF0804001F0ABFF0122ED
:1031D0001146900702F01DFB1C208DF80000022014
:1031E0008DF8010000208DF8020001208DF8030009
:1031F000684601F0DAFA0121880702F0EFFA7FBD94
:103200007FB505460C460121022001F060FEADF8B5
:103210000850ADF804400020ADF80A00ADF80600F3
:1032200001A93D4801F07EFF012211463A4802F013
:10323000F0FA1D208DF8000002208DF80100012019
:103240008DF802008DF80300684601F0AEFA012106
:10325000314802F0C3FA7FBD7FB505460C46012117
:10326000042001F034FEADF80850ADF80440002011
:10327000ADF80A00ADF8060001A9284801F052FF98
:1032800001221146254802F0C4FA1E208DF80000E4
:1032900002208DF801008DF8020001208DF8030056
:1032A000684601F082FA01211C4802F097FA7FBDBE
:1032B00070B504460D4645F2555003F029F9E0B2C9
:1032C00003F029F9284603F029F903F02AF903F05D
:1032D0002DF970BD10B503F024F910BD10B5012112
:1032E000880702F044FD0121880702F051FD10BD5E
:1032F00010B50121084802F03AFD0121064802F00C
:1033000047FD10BD10B50121044802F030FD012138
:10331000024802F03DFD10BD0004004000080040DE
:1033200070B505460C46FFF760FDA220FFF713FEBF
:1033300000BFFFF79FFD0028FBD12846FFF70BFEDB
:10334000FFF798FD2046FFF706FEFFF793FDFFF716
:103350006CFD022000F0C0FE70BD0146002204E0BA
:10336000501CC2B2A1F10A00C1B20A29F8DA100752
:1033700041EA1060704710B500210846FFF7D0FF02
:1033800002210120FFF7CCFF7D490878FFF7E5FF18
:10339000044621460220FFF7C3FF79494878FFF72A
:1033A000DCFF044621460320FFF7BAFF7449887802
:1033B000FFF7D3FF044621460420FFF7B1FF704911
:1033C000C878FFF7CAFF044621460520FFF7A8FF8B
:1033D0006B490879FFF7C1FF044621460620FFF735
:1033E0009FFF67494879FFF7B8FF04462146072049
:1033F000FFF796FF62498879FFF7AFFF0446214641
:103400000820FFF78DFF01210920FFF789FF022126
:103410000A20FFF785FF03210B20FFF781FF04211E
:103420000C20FFF77DFF03210D20FFF779FF00211E
:103430000E20FFF775FF03210F20FFF771FF10BD6E
:10344000014601F00F020B1103EB830302EB430271
:10345000D0B2704770B50446FFF7C7FCA220FFF753
:103460007AFD00BFFFF706FD0028FBD12046FFF7DD
:1034700072FDFFF7FFFCFFF7B8FCA320FFF76BFD21
:10348000FFF7F8FC0020FFF79AFD0546FFF7CDFC9B
:10349000022000F021FE284670BD7CB505460220C2
:1034A000FFF7D8FF00F07F008DF800000320FFF742
:1034B000D1FF00F07F008DF801000420FFF7CAFF64
:1034C00000F03F008DF802000520FFF7C3FF00F079
:1034D0003F008DF803000620FFF7BCFF00F0070057
:1034E0008DF804000720FFF7B5FF00F01F008DF8EE
:1034F00005000820FFF7AEFF8DF80600002406E067
:103500001DF80400FFF79CFF2855601CC4B2072C6F
:10351000F6DB7CBD70B50820FFF79CFF054628460A
:10352000FFF78EFF0446204670BD70B505460024A7
:1035300005E02046FFF78EFF2855601CC4B2102C12
:10354000F7DB70BD70B5054600240AE0285DFFF783
:1035500004FF0646A11CC8B23146FFF7E1FE601C1D
:10356000C4B2072CF2DB70BD014600BF080900EBB6
:103570008000420001F00F001044C0B2704700000C
:103580007800002000B589B001210D2001F092FCE7
:103590000121880301F09BFC4FF46040ADF820004E
:1035A00003208DF8220018208DF8230008A9F74881
:1035B00001F0C4F94FF46041F44801F06CFA802046
:1035C000ADF8200010208DF8230003208DF8220094
:1035D00008A9EF4801F0B2F98021ED4801F05BFA4B
:1035E0000820ADF8200010208DF8230003208DF86E
:1035F000220008A9E54801F0A1F90821E34801F0FB
:103600004AFA3320ADF8200048208DF8230003202B
:103610008DF8220008A9DD4801F090F90120DD496C
:103620000860DD49C1F88C010020ADF80C004FF4B2
:103630008270ADF80E000020ADF81000ADF8120059
:10364000ADF814004FF40070ADF816002820ADF866
:1036500018000020ADF81A000720ADF81C0003A9DF
:10366000CE4802F09BFF012002F049FF002101201B
:1036700001F07AFA00208DF808000C208DF809007E
:10368000012001908DF80A0001A802F0C1FE10206F
:1036900002F035FF0421012001F066FA00208DF8C8
:1036A00008000C208DF809001020019001208DF8F1
:1036B0000A0001A802F0ACFE06208DF800000320ED
:1036C0008DF8010002208DF8020001208DF8030022
:1036D000684601F06AF80A208DF8000003208DF892
:1036E000010000208DF8020001208DF803006846DB
:1036F00001F05BF80121A94802F0F7FF09B000BD15
:1037000010B50446A54800884FF6C7710840A34984
:103710000880084600882043088001219F4802F065
:10372000E4FF10BD70B50546002405E0601CC4B27E
:10373000C82C01DD002070BD0221984803F059F823
:103740000028F3D02946954803F000F8002405E04E
:10375000601CC4B2C82C01DD0020ECE701218F48B9
:1037600003F047F80028F3D08C4802F0F1FFC0B214
:10377000E1E72DE9F04107460D4616463846FFF7CA
:10378000D1FF8046002405E0FF20FFF7CBFF28553E
:10379000601CC4B2B442F7DB4046BDE8F0812DE9BD
:1037A000F04107460C4615463846FFF7BBFF8046FA
:1037B000002605E014F8010BFFF7B4FF701CC6B239
:1037C000AE42F7DB4046BDE8F08170B506460C46D8
:1037D0001CB100206F49086002E0002070490860B9
:1037E0000A2000F079FC3046FFF79CFF05460120D7
:1037F000684908606849C1F88C010A2000F06CFC37
:10380000284670BD30B502460023664C6354002044
:1038100009E0002301EB4104C4EB8114624D2C4408
:103820002354431CD8B29042F3DB30BD2DE9F04164
:1038300007460C4615461DB100205649086002E0B7
:10384000002057490860142000F046FC3846FFF776
:1038500069FF06462046FFF765FF01204D490860D5
:103860004D49C1F88C01142000F036FC3046BDE80B
:10387000F0812DE9F04705460E4617469846B8F107
:10388000000F03D000204349086002E000204449B3
:103890000860142000F020FC45F04000FFF742FFD4
:1038A0008146002404E0305DFFF73CFF601CC4B299
:1038B000BC42F8DB0120374908603749C1F88C0168
:1038C000142000F009FC4846BDE8F08770B50446B6
:1038D0000D4600261DB100202E49086002E00020A0
:1038E0002F490860142000F0F7FB44F0C000FFF7F8
:1038F00019FF06460020FFF715FF0646012025495F
:1039000008602549C1F88C01142000F0E5FB304621
:1039100070BD70B504460D461DB100201D490860FC
:1039200002E000201E490860142000F0D5FB44F09E
:103930008000FFF7F7FE06460020FFF7F3FE06467D
:103940000120144908601449C1F88C01142000F0CA
:10395000C3FB304670BD2DE9F04705460E461746BD
:103960009846B8F1000F03D000200A49086002E031
:1039700000200B490860142000F0AEFB45F0C000A9
:10398000FFF7D0FE8146002416E00000000C014045
:10399000000801409C012142008021420038004083
:1039A0008C812142A50000200B3700200020FFF76A
:1039B000B9FE3055601CC4B2BC42F7DB0120F749A8
:1039C0000860F749C1F88C01142000F085FB4846D7
:1039D000BDE8F08710B5044621463D20FFF7F5FE0F
:1039E00010BD10B504460120EC490860EC49C1F84F
:1039F0008C011CB10020E949086002E00020E9497F
:103A000008600120E5490860E549C1F88C014FF4E0
:103A10007A7000F061FB21463020FFF7D6FE10BD22
:103A200070B504460D4621782A460B20FFF7FEFEAE
:103A300061782A460C20FFF7F9FEA1782A460D206E
:103A4000FFF7F4FEE1782A460E20FFF7EFFE21791A
:103A50002A460F20FFF7EAFE61792A461020FFF779
:103A6000E5FEA1792A461120FFF7E0FEE1792A461A
:103A70001220FFF7DBFE217A2A461320FFF7D6FE3D
:103A8000617A2A461420FFF7D1FEA17A2A460A203D
:103A9000FFF7CCFEE17A2A461520FFF7C7FE217B0F
:103AA0002A462120FFF7C2FE617B2A462220FFF72B
:103AB000BDFEA17B2A461820FFF7B8FEE17B2A460F
:103AC0001920FFF7B3FE217C2A461A20FFF7AEFE2D
:103AD000617C2A461B20FFF7A9FEA17C2A461C20F8
:103AE000FFF7A4FEE17C2A461D20FFF79FFE217D03
:103AF0002A462320FFF79AFE617D2A462420FFF7FD
:103B000095FEA17D2A462520FFF790FEE17D2A46FD
:103B10002620FFF78BFE217E2A462920FFF786FE0E
:103B2000617E2A462C20FFF781FEA17E2A462D20A9
:103B3000FFF77CFEE17E2A462E20FFF777FE217FED
:103B40002A460020FFF772FE617F2A460220FFF717
:103B50006DFEA17F2A460720FFF768FEE17F2A4617
:103B60000820FFF763FE94F820102A460920FFF78B
:103B70005DFE94F821102A460620FFF757FE70BD1F
:103B800070B504460D4629463620FFF71EFE2A462C
:103B900021463E20FFF74AFE4FF47A7000F09CFA6F
:103BA00070BD10B5044621463620FFF70EFE2146B3
:103BB0003A20FFF70AFE21463620FFF706FE21468F
:103BC0003420FFF702FE24B100207649083908604E
:103BD00003E0002073490831086010BD70B5044649
:103BE0000D4629461320FFF794FE0646012C06D108
:103BF00046F080012A461320FFF718FE05E006F084
:103C00007F012A461320FFF711FE70BD70B50446F0
:103C10000D460120C0EB4400C4B229463620FFF710
:103C2000D4FD29460120FFF7D9FF29463620FFF7AA
:103C3000CCFD2A4621460A20FFF7F8FD642000F05B
:103C40004BFA29463620FFF7C0FD642000F044FA05
:103C500029463720FFF7B9FD642000F03DFA2946D8
:103C60003620FFF7B2FD642000F036FA29463120F5
:103C7000FFF7ABFD642000F02FFA29463620FFF74E
:103C8000A4FD642000F028FA2846FFF78AFF70BDE3
:103C900010B5044621463620FFF797FD21464248DD
:103CA000FFF7BEFE21463620FFF78FFD224600219A
:103CB0001720FFF7BBFD21463620FFF786FD214682
:103CC0000120FFF78BFF10BD70B504460D46294655
:103CD0000820FFF71EFE0646012C06D146F04001E3
:103CE0002A460820FFF7A2FD05E006F0BF012A469C
:103CF0000820FFF79BFD70BD10B504462146362015
:103D0000FFF763FD21463A20FFF75FFD10BD10B5B8
:103D1000044621463620FFF758FD21463B20FFF799
:103D200054FD10BD38B50446002000902046FFF732
:103D300058FE4FF47A7000F0F2F921463120FFF777
:103D4000C5FD0090FF201949087021461648FFF76D
:103D500067FE214615480078FFF712FF21463620FE
:103D6000FFF733FD224600211720FFF75FFD2146B4
:103D70000120FFF733FF4FF47A7000F0D0F92146AD
:103D80003420FFF722FD21463120FFF79FFD032855
:103D900001D1002038BD0120FCE700009C01214238
:103DA000008021428C81214280000020C000002040
:103DB0002DE9F04106460F461446002534B1A648C9
:103DC0000068A6490840A449086006E0A2480068C7
:103DD000A2490F390840A04908601CB10120A04940
:103DE000086003E001209E4910310860C82000F0FF
:103DF00073F921463620FFF7E8FC2046FFF787FFDE
:103E000021463620FFF7E1FC224639463F20FFF7E6
:103E10000DFD21463620FFF7D8FC23463A463146B1
:103E20003F20FFF726FD21463620FFF7CEFC214636
:103E30003520FFF7CAFC64B104E0681CC5B26420F9
:103E400000F04AF986488438006870B9FF2DF4DB29
:103E50000BE004E0681CC5B2642000F03DF9804826
:103E60007438006808B9FF2DF4DB002564B104E064
:103E7000681CC5B2642000F02FF9794884380068C6
:103E800070B1FF2DF4DB0BE004E0681CC5B26420C8
:103E900000F022F972487438006808B1FF2DF4DB95
:103EA0002046FFF77EFE34B16B48006840F0010009
:103EB0006949086005E06848006840F010006649FC
:103EC0000860BDE8F08170B5044664B104E0701C80
:103ED000C6B2642000F000F961488438006870B10F
:103EE000FF2EF4DB0BE004E0701CC6B2642000F08F
:103EF000F3F85B487438006808B1FF2EF4DBC82083
:103F000000F0EAF821463F20FFF703FD054605B91A
:103F100035E03D2D00DD32E05248055504EB44000C
:103F2000C0EB8410504A811823462A463F20FFF7F1
:103F300012FD21463F20FFF7ECFC4C490855214675
:103F40003F20FFF7E6FC4A4908550846005D8028F7
:103F500005DD0120474908554749085502E0002082
:103F60004449085521463B20FFF7B0FC00F07F058F
:103F70002046FFF716FE0DB9002070BD00BF204699
:103F8000FFF7BAFE00203C4908553A49085520463B
:103F9000FFF707FE0120F0E70146802903DBC82078
:103FA000A0EB610070474820A0EB6100C0B2F9E7C8
:103FB00010B5044621463420FFF788FC10BD10B52B
:103FC000044621463820FFF781FC10BD70B5044639
:103FD00021463820FFF77AFC054605F00400042846
:103FE00001D1012070BD0020FCE710B50446214638
:103FF0003620FFF7EAFB21463920FFF7E6FB10BD2C
:1040000010B5044621463520FFF7DFFB10BD38B55B
:1040100004460020009021463120FFF757FC009015
:1040200021460820FFF775FC009021460620FFF787
:1040300070FC00902046FFF7CDFC00902146362012
:10404000FFF7C3FB2046FFF7C5FC00902146342054
:10405000FFF7BBFB38BD000000040140FEFF0F006E
:1040600084812142A50000200B370020AB000020F6
:10407000A7000020A9000020B000002010B502F029
:1040800032FD02F076FE02F049FD10BD10B56FF072
:10409000040000F0D4FB314800683149B0FBF1F076
:1040A000304908702D4800682D49B0FBF1F44FF4F9
:1040B000FA60444302202C4908804FF0E020006958
:1040C00040F002004FF0E0210861084644610069B9
:1040D00040F00100086110BD70B5034600224FF0AA
:1040E000E02675691F4E367803FB06F400BF4FF0DB
:1040F000E026B16910E04FF0E026B06988420BD0AD
:10410000884202D20E1A324402E02E1A0E44324481
:104110000146A24200D300E0EDE700BF70BD70B5DC
:10412000044612480078012811D10F4800888442C3
:1041300006DB0D48008894FBF0F5284604F058FD96
:104140000948008894FBF0F100FB114084B24FF461
:104150007A7104FB01F0FFF7BFFF70BD640000201F
:1041600000127A00C4000020C600002012010020C6
:1041700010B54FF4A06000F013FB10BD05490020FE
:1041800005E00A78044B1A54491C421CD0B20C2892
:10419000F7DB7047E8F7FF1FFD370020014600BF3F
:1041A0007047FE4A1278012A0BD100BFFC4A1288E0
:1041B00002F04002002AF9D0C2B2F94B1B1D1A804E
:1041C0001AE0F64A1278022A0BD100BFF54A12888B
:1041D00002F04002002AF9D0C2B2F24B1B1D1A8035
:1041E0000AE000BFF04A128802F04002002AF9D02B
:1041F000C2B2ED4B1B1D1A80704710B592B0044639
:104200000121084600F049FE012144F20D0000F0B2
:1042100051FEE34801F0C0FDE44801F0C1FF4FF456
:104220000070ADF8440003208DF8460018208DF88A
:10423000470011A9DE4800F081FB4FF48060ADF823
:10424000440004208DF8470011A9D94800F076FBFE
:104250000D940020ADF83800ADF83A00ADF83C0000
:10426000ADF840000C20ADF83E00CD48001D019097
:10427000D0480290002003908020049000200590F8
:104280008020069000200790089009904FF440503D
:104290000A9000200B9001A9C44802F023F80121E4
:1042A000C24802F04AF825208DF8300001208DF830
:1042B000310002208DF8320001208DF833000CA867
:1042C00000F073FA0DA9B64801F0A9FD002240F2F2
:1042D0002551B34801F03BFE012240F22441B04891
:1042E00001F035FE002240F22661AD4801F02FFEBC
:1042F00001224021AA4801F04FFE0121A84801F007
:104300001AFE4021A64801F0FEFE12B010BD10B505
:1043100092B004460121084600F0BFFD0121480487
:1043200000F0D5FD0121042000F0C4FD9D4801F0FE
:1043300033FD9E48143001F033FF0420ADF84400F3
:1043400003208DF8460018208DF8470011A99848E1
:1043500000F0F4FA0820ADF8440004208DF847007E
:1043600011A9934800F0EAFA0D940020ADF8380046
:10437000ADF83A00ADF83C00ADF840000C20ADF8C7
:104380003E008848001D01908B4802900020039059
:104390008020049000200590802006900020079047
:1043A000089009904FF440500A9000200B9001A90A
:1043B0007E48143001F096FF01217C48143001F052
:1043C000BCFF26208DF8300001208DF8310003203D
:1043D0008DF8320001208DF833000CA800F0E5F9CB
:1043E0000DA9704801F01BFD002240F225516D48D7
:1043F00001F0ADFD012240F224416A4801F0A7FD21
:10440000002240F22661674801F0A1FD012240210F
:10441000644801F0C1FD0121624801F08CFD40219A
:10442000604801F070FE12B010BD10B592B00446A5
:104430000121084600F031FD0121880400F047FD0C
:104440000121082000F036FD574801F0A5FC57482F
:10445000283801F0A5FE4FF48060ADF84400032039
:104460008DF8460018208DF8470011A9534800F038
:1044700065FA4FF40060ADF8440004208DF8470061
:1044800011A94E4800F05AFA0D940020ADF83800FA
:10449000ADF83A00ADF83C00ADF840000C20ADF8A6
:1044A0003E004148001D01904548029000200390C5
:1044B0008020049000200590802006900020079026
:1044C000089009904FF440500A9000200B9001A9E9
:1044D0003648283801F006FF01213448283801F019
:1044E0002CFF27208DF8300001208DF831000420AA
:1044F0008DF8320001208DF833000CA800F055F93A
:104500000DA9294801F08BFC002240F225512648D4
:1045100001F01DFD012240F22441234801F017FD66
:10452000002240F22661204801F011FD01224021C5
:104530001D4801F031FD01211B4801F0FCFC402128
:10454000194801F0E0FD12B010BD10B50246002080
:104550000CE000BF124B1B8803F04003002BF9D086
:104560000B5C0F4C241D2380431CD8B29042F0DB1F
:1045700010BD10B5024600200CE000BF094B1B889F
:1045800003F04003002BF9D00B5C064C241D238064
:10459000431CD8B29042F0DB10BD0000CE000020DA
:1045A00000380140004400400048004058000240EC
:1045B000000801400938002089380020000C014023
:1045C0000939002010B5024600200CE000BF5D4B09
:1045D0001B8803F04003002BF9D00B5C594C241DC1
:1045E0002380431CD8B29042F0DB10BD10B502F01E
:1045F0007AFA40F22441544801F08EFDF8B10021CE
:10460000524801F09AFE4FF4003001F0C5FE4F48C9
:1046100001F0AAFEC0F1800084B24D4804808021E0
:104620004A4801F09FFE484801F0F6FC40F2244160
:10463000454801F068FD0121444801F07EFE00BFBD
:1046400002F06CFA10BD10B502F04DFA40F22441B0
:10465000404801F061FD18B300213C48143001F0DE
:104660006CFE4FF4003001F097FE3848143001F032
:104670007BFEC0F1800084B237480480802133483B
:10468000143001F06FFE334801F0C6FC40F22441C3
:10469000304801F038FD01212C48143001F04DFE66
:1046A00000BF02F03BFA10BD10B502F01CFA40F258
:1046B0002441244801F030FD18B300212348283854
:1046C00001F03BFE4FF4003001F066FE1F48283831
:1046D00001F04AFEC0F1800084B2204804808021AD
:1046E0001A48283801F03EFE164801F095FC40F2C9
:1046F0002441144801F007FD01211448283801F035
:104700001CFE00BF02F00AFA10BD30B502460B468F
:104710004FF6FF70002112E0555C684000240AE06B
:1047200000F0010525B14AF2010585EA600000E0CC
:104730004010651CECB2082CF2DB4D1CE9B299422A
:10474000EADB30BD0048004000380140580002401C
:10475000D000002000440040D2000020D4000020FF
:104760000948804709480047FEE7FEE7FEE7FEE705
:10477000FEE7FEE7FEE7FEE7FEE7FEE70448054941
:10478000054A064B70470000FF2B0008ED000008AB
:1047900048490020484F0020484B0020484B00204B
:1047A00031490143314A1160704770B5002100233F
:1047B0000F22C47804B32D4C246804F4E064C4F5DB
:1047C000E064210AC1F10403CA40447804FA03F109
:1047D0008478144021430901254C0678A1550478BA
:1047E00004F01F050124AC4005786D11AD0005F102
:1047F000E025C5F8004109E0047804F01F05012414
:10480000AC401C4D0678761145F8264070BD1A4A1A
:104810000A400243154B1B1F1A60704739B1134AF7
:10482000121D12680243114B1B1D1A6006E00F4A4D
:10483000121D126882430D4B1B1D1A60704704281D
:1048400008D14FF0E021096941F004014FF0E02266
:10485000116107E04FF0E021096921F004014FF0F8
:10486000E0221161704700000000FA050CED00E045
:1048700000E400E080E100E080FFFF1F10B5044687
:10488000CC48844208D10121042000F02DFB0021F6
:10489000042000F029FB46E0C748844208D10121EA
:1048A000082000F021FB0021082000F01DFB3AE069
:1048B000C248844208D10121102000F015FB0021DC
:1048C000102000F011FB2EE0BD48844208D10121E8
:1048D000202000F009FB0021202000F005FB22E051
:1048E000B848844208D10121402000F0FDFA00219F
:1048F000402000F0F9FA16E0B348844208D10121C3
:10490000802000F0F1FA0021802000F0EDFA0AE0AA
:10491000AE48844207D10121801500F0E5FA00215C
:10492000A01500F0E1FA10BD10B50121084600F015
:10493000DBFA0021012000F0D7FA10BD2DE9F0418B
:10494000024600250026002000230024002791F8BD
:1049500003C00CF00F0591F803C00CF0100CBCF173
:10496000000F03D091F802C04CEA050591F800C091
:10497000BCF1000F31D0146800202BE04FF0010C87
:104980000CFA00F3B1F800C00CEA03069E4220D1F5
:1049900083004FF00F0C0CFA03F7BC4305FA03FC3D
:1049A0004CEA040491F803C0BCF1280F06D14FF083
:1049B000010C0CFA00FCC2F814C00AE091F803C024
:1049C000BCF1480F05D14FF0010C0CFA00FCC2F805
:1049D00010C0401C0828D1D31460B1F800C0BCF14D
:1049E000FF0F34DD546800202EE000F1080C4FF07A
:1049F000010808FA0CF3B1F800C00CEA03069E4265
:104A000021D183004FF00F0C0CFA03F7BC4305FAD9
:104A100003FC4CEA040491F803C0BCF1280F05D153
:104A200000F1080C08FA0CF8C2F8148091F803C0E1
:104A3000BCF1480F07D100F1080C4FF0010808FA4B
:104A40000CF8C2F81080401C0828CED35460BDE892
:104A5000F0814FF6FF710180022181700421C17045
:104A600070470246002093680B400BB1012000E024
:104A7000002070470146886880B2704702460020D7
:104A8000D3680B400BB1012000E0002070470146C5
:104A9000C86880B2704701617047416170470AB1D0
:104AA000016100E041617047C16070474FF480329E
:104AB0000A4382618161826182698269704702462C
:104AC0000020434B18684FF68073184040EA0210EC
:104AD00008433F4B186070473E49C8617047F0B5C6
:104AE0000A46002300240021002500F00046B6F10C
:104AF000004F02D1364EF16901E0354E7168C0F3C6
:104B0000034583B200F44016B6F5401F08D121F0EA
:104B100070612F4E766826F070662D4F7E6012E031
:104B200000F48016B6F5801F06D1032606FA05F4B8
:104B3000A14341F0706106E0460D360103FA06F626
:104B4000B14341F0706122B1460D360103FA06F619
:104B5000314300F00046B6F1004F02D11C4EF16126
:104B600001E01B4E7160F0BD30B500228B071C0FB9
:104B70000F2303FA04F2164B08338C1053F8243039
:104B80009343134C08348D1044F8253023468C1081
:104B900053F824308C07240F00FA04F423430C4C00
:104BA00008348D1044F8253030BD0A49DC310860E6
:104BB0007047000000080140000C01400010014057
:104BC0000014014000180140001C01400020014079
:104BD0000000014000002042DF48006840F0010072
:104BE000DD49086008464068DC490840DA49486009
:104BF00008460068DA490840D74908600846006856
:104C000020F4802008600846406820F4FE004860D8
:104C10004FF41F0088607047CF49096821F4803144
:104C2000CD4A11601146096821F480211160B0F568
:104C3000803F03D0B0F5802F0ED106E0C649096849
:104C400041F48031C44A116007E0C349096841F466
:104C5000A021C14A116000E000BF00BF704710B53D
:104C600001460022002300204A11012A02D1BA4C39
:104C7000236806E0022A02D1B74C236A01E0B64C51
:104C8000636A01F01F02012494401C400CB1012012
:104C900000E0002010BD38B5002000900024002561
:104CA00000BF3120FFF7DBFF05460098401C009055
:104CB0000098B0F5A06F01D0002DF2D03120FFF7A1
:104CC000CEFF08B1012400E00024204638BD014693
:104CD0000020A14A106820F0F80040EAC1001060EE
:104CE0007047A04908607047024600209A4B5868F8
:104CF00020F47C1042EA01031843974B5860704738
:104D000098490866704701460020934A506820F091
:104D100003000843506070478F48406800F00C0063
:104D20007047014600208C4A506820F0F00008438C
:104D30005060704701460020874A506820F4E060C8
:104D400008435060704701460020834A506820F4B1
:104D5000605040EAC1005060704729B17E4A527AE3
:104D600002437D4B5A7204E07B4A527A82437A4B6B
:104D70005A7270477B49D83108607047014600205D
:104D8000754A506820F44040084350607047002145
:104D9000714A20321170704A82F82010012802D026
:104DA00004280AD104E001216B4A2032117005E089
:104DB0000521694A2032117000E000BF00BF704732
:104DC0006949086070476449096A0143624A11628F
:104DD0007047654944390860704730B500210022AA
:104DE000002400235C4D6D6805F00C0121B10429FD
:104DF00005D0082923D105E05C4D056022E05B4D1C
:104E000005601FE0544D6D6805F47012524D6D68D9
:104E100005F48034022505EB92421CB9544D5543EC
:104E200005600BE04C4D6D6805F400351DB1504D2B
:104E30005543056002E04D4D5543056002E04B4D82
:104E4000056000BF00BF444D6D6805F0F001090921
:104E5000484D6B5C0568DD4045603F4D6D6805F46D
:104E6000E061090A434D6B5C4568DD4085603A4D61
:104E70006D6805F46051C90A3E4D6B5C4568DD40C4
:104E8000C560354D6D6805F44041890B3A4D6B5C4A
:104E9000C568B5FBF3F5056130BD29B12E4A5269ED
:104EA00002432D4B5A6104E02B4A526982432A4B3C
:104EB0005A61704729B1284A92690243264B9A6188
:104EC00004E0254A92698243234B9A61704729B1D5
:104ED000214AD2690243204BDA6104E01E4AD269BA
:104EE00082431D4BDA61704729B11B4AD2680243E5
:104EF000194BDA6004E0184AD2688243164BDA6034
:104F0000704729B1144A12690243134B1A6104E035
:104F1000114A12698243104B1A6170471249403995
:104F2000086070470F49C86470470B49C8717047E3
:104F30000948406A40F0807007494862704701465E
:104F40000020054A92680A400AB1012000E00020D2
:104F50007047014988727047001002400000FFF856
:104F6000FFFFF6FE000042428004424200127A0037
:104F700000093D00D6000020E600002010B50446E0
:104F8000FE48844208D10121C014FFF7ADFF002183
:104F9000E014FFF7A9FFC4E0B4F1804F08D101216C
:104FA0000846FFF7AEFF00210120FFF7AAFFB8E097
:104FB000F348844208D101210220FFF7A2FF00211B
:104FC0000220FFF79EFFACE0EE48844208D10121A9
:104FD0000420FFF796FF00210420FFF792FFA0E0D6
:104FE000E948844208D101210820FFF78AFF002107
:104FF0000820FFF786FF94E0E448844208D10121AD
:105000001020FFF77EFF00211020FFF77AFF88E0D5
:10501000DF48844208D101212020FFF772FF0021E0
:105020002020FFF76EFF7CE0DA48844208D101219E
:105030004014FFF759FF00216014FFF755FF70E09F
:10504000D548844209D10121C804FFF74DFF002152
:105050004FF40020FFF748FF63E0D048844209D1B5
:1050600001210805FFF740FF00214FF48010FFF7F2
:105070003BFF56E0CA48844209D101214805FFF7A9
:1050800033FF00214FF40010FFF72EFF49E0C54821
:10509000844208D101214020FFF733FF0021402046
:1050A000FFF72FFF3DE0C048844208D10121802056
:1050B000FFF727FF00218020FFF723FF31E0BB48E7
:1050C000844208D101218015FFF71BFF0021A015A4
:1050D000FFF717FF25E0B648844209D101210804F3
:1050E000FFF702FF00214FF48030FFF7FDFE18E0CC
:1050F000B048844209D101214804FFF7F5FE0021A0
:105100004FF40030FFF7F0FE0BE0AB48844208D1CB
:1051100001218804FFF7E8FE00214FF48020FFF70B
:10512000E3FE10BD00220288944B98420ED0994BAA
:1051300098420BD0B0F1804F08D0914B984205D0E7
:10514000904B984202D0904B984204D14FF68F7307
:105150001A404B881A438D4B984207D08C4B98428B
:1051600004D04FF6FF431A40CB881A4302808B8845
:1051700083850B880385814B98420BD0854B9842E1
:1051800008D08B4B984205D08A4B984202D08A4B6C
:10519000984201D10B7A038601238382704770B550
:1051A000002400220023058C4FF6FE76354005844E
:1051B000028C8388048B4FF68F752C40B51E2C40D3
:1051C0000D882C43751E2A400D892A434D882A4399
:1051D0006A4DA8420BD06F4DA84208D0744DA8422A
:1051E00005D0744DA84202D0734DA84213D14FF69A
:1051F000F7752A404D892A434FF6FB752A408D8862
:105200002A434FF6FF652B404FF6FF552B408D8903
:105210002B43CD892B4383800483CD8885860284EC
:1052200070BD70B5002400220023058C4FF6EF7688
:1052300035400584028C8388048B48F6FF752C402A
:105240004FF6FF452C400D884FF6FF7606EA052500
:105250002C434FF6DF752A400D8906EA05152A43CF
:105260004D8806EA05152A43444DA84202D0494D0F
:10527000A8421DD14FF67F752A404D894FF6FF7623
:1052800006EA05152A434FF6BF752A408D8806EABF
:1052900005152A434FF6FF352B404FF2FF752B4083
:1052A0008D8906EA85052B43CD8906EA85052B43C2
:1052B00083800483CD880587028470BD70B5002487
:1052C00000220023058C4FF6FF6635400584028CD2
:1052D0008388848B4FF68F752C404FF6FC752C40DD
:1052E0000D882C434FF6FF552A400D894FF6FF7667
:1052F00006EA05252A434D8806EA05252A431F4D5F
:10530000A84202D0234DA8421DD14FF2FF752A407A
:105310004D894FF6FF7606EA05252A434FF6FF35FD
:105320002A408D8806EA05252A434EF6FF752B4054
:105330004DF6FF752B408D8906EA05152B43CD8967
:1053400006EA05152B4383808483CD8885870284F4
:1053500070BD70B5002200230024058C4EF6FF7648
:1053600035400584038C8488828B48F6FF752A407B
:105370004FF6FF452A400D8820E00000002C014038
:105380000004004000080040000C004000100040F5
:105390000014004000340140004C01400050014026
:1053A0000054014000180040001C00400020004054
:1053B0000040014000440140004801404FF6FF76A4
:1053C00006EA05252A434DF6FF752B400D8906EAAE
:1053D00005352B434D8806EA05352B43FA4DA84287
:1053E00002D0FA4DA84208D14BF6FF752C408D89AA
:1053F0004FF6FF7606EA85152C4384808283CD889C
:10540000A0F84050038470BD828B4FF2FF331A40E6
:105410008283828B4FF6FF7303EA01231A43828350
:105420007047F0B50C461546002200210026078C77
:105430004EF6FF7C07EA0C070784828B018C4FF63F
:10544000FF7707EA043640F6FF473A404FF6FF770A
:1054500007EA05273A434FF6FF7707EA03373A434F
:10546000D94FB8420ED0D94FB8420BD0B0F1804FCF
:1054700008D0D74FB84205D0D64FB84202D0D64F49
:10548000B84206D14DF6FF77394046F4805739438C
:1054900005E047F6FF57394044F48057394382838B
:1054A0000184F0BD828B4FF6F3731A408283828BA6
:1054B0000A4382837047F0B50C461546002200214E
:1054C0000026078C4FF6FF6C07EA0C070784828BD7
:1054D000018C4FF6FF7707EA04264FF60C773A4027
:1054E0004FF6FF7707EA03172F433A43B64FB84208
:1054F0000ED0B64FB8420BD0B0F1804F08D0B44FA9
:10550000B84205D0B34FB84202D0B34FB84206D12B
:105510004FF6FF57394046F48077394305E04FF2A4
:10552000FF57394044F48077394382830184F0BDCA
:10553000028B4FF2FF331A400283028B4FF6FF7348
:1055400003EA01231A4302837047F0B50C4615465F
:10555000002200210026078C4FF6EF7C07EA0C079B
:105560000784028B018C4FF6FF7707EA041640F69A
:10557000FF473A404FF6FF7707EA03373A434FF6C3
:10558000FF7707EA05273A438F4FB8420ED08F4F77
:10559000B8420BD0B0F1804F08D08D4FB84205D043
:1055A0008C4FB84202D08C4FB84206D14FF6DF770D
:1055B000394046F01007394305E04FF65F77394030
:1055C00044F01007394302830184F0BD028B4FF68B
:1055D000F3731A400283028B0A4302837047F0B5CB
:1055E0000C46154600220021068C4FF6FE773E4001
:1055F0000684028B018C4FF60C7632407E1C06EA44
:1056000003162E433243704EB0420ED06F4EB0425E
:105610000BD0B0F1804F08D06D4EB04205D06D4E2A
:10562000B04202D06C4EB04206D14FF6FD7631400A
:1056300044F00106314305E04FF6F576314044F081
:105640000106314302830184F0BD70B505460C4666
:105650005D4885420ED05D4885420BD0B5F1804F44
:1056600008D05B48854205D05A48854202D05A4846
:10567000854200D100E000BF208850B92389A2886C
:1056800061882846FFF7ABFFE1882846FFF79EFFB9
:1056900025E0208804280AD12389A2886188284629
:1056A000FFF753FFE1882846FFF742FF17E0208805
:1056B00008280AD12389A28861882846FFF7FBFEC3
:1056C000E1882846FFF7EEFE09E02389A288618879
:1056D0002846FFF7A6FEE1882846FFF795FE70BD35
:1056E0002DE9F04105460C4600260127608808B9DF
:1056F000022600E00026A088012801D1022700E050
:1057000001272088A0B92389A28861882846FFF74D
:1057100066FFE1882846FFF759FF23893A4631465C
:105720002846FFF712FFE1882846FFF701FF13E044
:105730002389A28861882846FFF707FFE188284669
:10574000FFF7F6FE23893A4631462846FFF747FF22
:10575000E1882846FFF73AFFBDE8F0810A884B88C8
:105760001A438B881A43CB881A430B891A434B89F7
:105770001A438B891A43A0F8442070474FF6FF71F3
:10578000818000210180C180418001727047002129
:10579000018041808180C180018141818181C181FD
:1057A0007047002101804180012181800021C1805A
:1057B000018170470021018041808180C180018189
:1057C0004181818170470000002C0140003401407C
:1057D0000004004000080040000C004021B1028895
:1057E00042F00102028004E002884FF6FE731A4084
:1057F0000280704731B1B0F8442042F40042A0F872
:10580000442005E0B0F84420C2F30E02A0F8442082
:1058100070471AB183890B43838102E083898B43EC
:10582000838170478182704741EA0203A0F84830C3
:1058300070471AB183890B43838102E083898B43CC
:105840008381704701894FF6F872114001817047DA
:105850000A46002101894FF68F73194011430181D7
:10586000704730B504460D4629462046FFF7F0FF45
:10587000208940F00700208130BD2DE9F041044629
:105880000D4616461F46602D06D13B460122314685
:105890002046FFF75AFE05E03B46012231462046EE
:1058A000FFF79DFE29462046FFF7D2FF208940F0F2
:1058B00007002081BDE8F08130B50C460021018948
:1058C000C9B24FF6FF7505EA032515432543294361
:1058D000018130BD2DE9F04105460E461746984638
:1058E000002443463A4631462846FFF7E5FF2C8917
:1058F0004FF6F870044044F007044FF68F700440F0
:1059000044F070042C81BDE8F081F0B504460D46EA
:1059100016461F463B46324629462046FFF7CCFF37
:10592000208940F480402081F0BD0185828270474B
:105930000A46002101884FF68F73194011430180F8
:105940007047F0B50C4615461E4600210022002384
:105950000189028B038C4FF6F877394021434FF6CB
:10596000FC473A4040F201173A434FF6DD773B409F
:105970004FF6FF7707EA06172F433B430181028367
:105980000384F0BD0A460021018B4FF68F73194046
:105990001143018370470A460021018B48F6FF73CB
:1059A00019404FF6FF7303EA02231943018370473E
:1059B0000A460021818B4FF68F7319401143818372
:1059C00070470A460021818B48F6FF7319404FF655
:1059D000FF7303EA022319438183704721B10288D0
:1059E00042F08002028004E002884FF67F731A4082
:1059F0000280704721B1828842F00402828004E074
:105A000082884FF6FB731A408280704721B18288EA
:105A100042F00802828004E082884FF6F7731A4051
:105A20008280704721B1828842F00102828004E0C6
:105A300082884FF6FE731A40828070470A46002122
:105A4000018B4FF6F77319401143018370470A46E3
:105A50000021018B4FF2FF7319404FF6FF7303EAE9
:105A600002231943018370470A460021818B4FF6B8
:105A7000F77319401143818370470A460021818BD7
:105A80004FF2FF7319404FF6FF7303EA02231943E5
:105A9000818370470A460021018B4FF6FB73194042
:105AA0001143018370470A460021018B4FF6FF33F3
:105AB00019404FF6FF7303EA02231943018370472D
:105AC0000A460021818B4FF6FB73194011438183F5
:105AD00070470A460021818B4FF6FF3319404FF67D
